:020000002028B6
:100008008B1C0900051C09280D288B10FF30850062
:0A00180009008B100030850009007C
:10004000031383164030810003138316FF3095009D
:100050008B01D0308B000313831670308F00031791
:1000600083160030880003178316003089000313BD
:100070008312850103138312880103138316FF3053
:100080008600031383168501031383168801031367
:10009000831208144E2008104E204728FF30A1007C
:0E00A000FF30A000A00B5228A10B5028080032
:04400E00C400FF3FAC
:00000001FF
