:020000002028B6
:100008008B1C0900051C09280D288B10FF30850062
:0A00180009008B100030850009007C
:10004000031383164030810003138316FF3095009D
:100050008B01D0308B000313831670308F00031791
:1000600083160030880003178316003089000313BD
:1000700083128501031383128801031383128601FF
:1000800003138316FF3086000313831685010313C1
:10009000831688010313831208145120081051207D
:1000A0004A28FF30A100FF30A000A00B5528A10B6B
:0400B00053280800C9
:04400E00C400FF3FAC
:00000001FF
